:100000000C94B9110C94D6110C94D6110C94D611F1
:100010000C94D6110C94D6110C94D6110C94D611C4
:100020000C94D6110C94D6110C94D6110C94D611B4
:100030000C94D6110C94D6110C94D6110C94D611A4
:100040000C94D6110C94D6110C94D6110C94D61194
:100050000C94D6110C94D6110C94D6110C94092A38
:100060000C94D6110C94D6110C94D6110C94D61174
:100070000C94D6110C94D6110C94D6110C94D61164
:100080000C94D6110C94D6110C94D6110C94D61154
:100090000C94D6110C94D6110C94D6110C94D61144
:1000A0000C94D6110C94C82D0C94D611080800009D
:1000B000000000000000005500550055005500FFED
:1000C00000FF00FF00FFAAFFAAFFAAFFAAFFFFFF91
:1000D000FFFFFFFFFFFFFFAAFFAAFFAAFFAAFF0083
:1000E000FF00FF00FF0055005500550055000408B3
:1000F00003000003010000010000000002010001F4
:10010000010008030F0E14090E1505030E05170450
:1001100007010D0503130E04030F0606020F0E045C
:10012000190F1512040E010D0503050E0405170F16
:1001300012140804130F0D050601141401030B0615
:10014000010D0F150E1406040506050E040514080E
:10015000010E0B07100C0119090E070000040D0F0A
:1001600012050007050E050D090513040D091313EB
:10017000050516051219000000011B011C011D01D7
:100180001E011F012001210122012301240125015B
:1001900026012701280129012A012B012C012D010B
:1001A0002E012F01300131013201330134013501BB
:1001B000360137013800010100011302140F031941
:1001C0000F150514080512050604010E070512088F
:1001D000120513140F12051303010C0C041301165E
:1001E000050810120F071205131303151305050553
:1001F00011150910040914050D050C0516050C024E
:10020000151002090E03140805020913030109124F
:10021000070D0F0E131405120301120507120F012B
:100220000D090E0708051115091010050405131412
:10023000011413020810020D1003051810020C1609
:100240000301140B0304050603131004031905131B
:10025000020E0F020F06050914050D1306170501FE
:10026000100F0E0501120D0F1206010D150C0514CD
:10027000050110100C0505030904051205010E09FE
:10028000130508010213090E14080504040F170EC4
:1002900000000005130C090E07050B0E09060506E4
:1002A0001201100905120513170F12040301180596
:1002B000050C010E030505131005011205020C01C2
:1002C000040504170F0F0C050C090E050E070C058D
:1002D000011408051204020F0E0506030F10100585
:1002E000120602120F0E1A050409120F0E0513143E
:1002F00005050C051701140512040C05010604067A
:1003000009120507160903140F121904070F0C042C
:10031000040C01131406051303011005050715014C
:100320001204030F1512040C010E04040F0E0C1915
:1003300004080F1005032525250500000000000313
:100340000E0F1702070F060205060F120502091409
:10035000040C01140507031205040914130F1309F3
:10036000050706120905040003120F05130B070108
:1003700016090E0001140B090E0D0A0F1E120900BA
:1003800007010E140F0913030D0110070E0F1408B7
:10039000090E070414010B0503060F1205131401BF
:1003A0001214040F160512000303010E030E0F149E
:1003B0000605130301100503070F140401170119A3
:1003C00006130106050C1905FEFEFEFEFE05060FCE
:1003D000150E0402010E0300000002FEFE020000E2
:1003E0000717050C030F0D05090112041516090C5A
:1003F0000C050810120F1005121419041408091323
:1004000004120F0104060609050C04130513170155
:100410000D1006060F120513140703010E190F0E17
:100420001304120F030B030801130613190D020F17
:100430000C0A120513050D020C090E07050C09071D
:100440000814040205010D06050D05120705040632
:10045000120F0D050D010709030613150D0D0F0EE3
:1004600005140805130504020F0F0B040C0F0F0BE6
:100470000413010D05020D050307101306090E13E1
:10048000090405031905140417090C0C040E0505CD
:10049000040109031301170413080F1005051814AC
:1004A000120106140F07070C050701120415020FAD
:1004B000190B1405010D00012512250725030F0E48
:1004C000050D0F0C09160905120008150112040587
:1004D000020C01040505100905030504020F13139E
:1004E00005030112041300050C0501041300071095
:1004F000120513050E140615100C0F010407030F47
:100500000E0E050314021003040B0505100810124B
:10051000051313090E07030B05190613050C050334
:100520001403010E04041708050E05120501041931
:100530000712050C05011305040C0F131404170F03
:10054000120D04020F150704130E010B04130512FC
:10055000100416090E0504120F0F1404060C010DE9
:100560000804050605011405040801101005011210
:10057000050404000000000413050C060205040431
:1005800017050E14030C160C0803120914090301B5
:100590000C05131001120B040301131404060F07BA
:1005A0000C041415120C040112020F040401070EAE
:1005B0000412051314030215190F86A0A1020003EB
:1005C000A10486A18C27A100D10BA3003D00A4FEAD
:1005D000A5005C868608A2C5A1C6A10000D00D07B3
:1005E000000828A2869D9DFE8686E609095DA14633
:1005F000A152A190A1C3075B0090009E00BD1D7D8C
:100600002A318600A153A22A86A2A154A22A86A238
:10061000A1FE55003D005600492A86A21056002A28
:1006200086A1572A86FE582A86FE592A8605520038
:100630005C8686035AFE5B055EA15FA160044500EF
:1006400047280446005E280446005F2804460060F0
:1006500028035B005D045B005E3C035B005F045BA2
:1006600000603C0641001C1B0053064100201B009B
:10067000530641001C1B0054064100201B00540679
:1006800040004E00802700000C3E009E004B007E84
:10069000FEC900CA27040C000D86040E000D860555
:1006A000B5007900B405B5007A00B405B5007B004B
:1006B000B40A0F003E003E0093FE10270000000920
:1006C0003E009E003A00C9FECA0F3F004C0040FEAB
:1006D0004A004B004D8500862F0F4E3C004F0050C6
:1006E000FE8100823C8586A22F0D3E004F008100D6
:1006F00083FE848686862F0E8700880089008A29DB
:100700003CFE3D008B270DE68CA1008FA1A28EA19F
:1007100000C8A18D075B00BB00B400BC03030095BB
:100720000B91003F0093FEBA003D00920D000CA01B
:10073000EDE6E6FE007FA0450047083E009A009BDC
:10074000009C27083E00970098009927093E009ECC
:100750008686FE0D2A860C3E009E009F00472AA03A
:10076000FE86860C3E009E003A005E2AA2FE868629
:100770000A3E009E005F2A86FE86860B3E009E0093
:100780009F00602AFE86860BA600A700CE003DFED5
:100790004B86860C4B00AC00AD00AE3CFEAF8686AF
:1007A0000E3A00B0B100B23CFEB300070060851104
:1007B0004200B600B73C00B8FE4B00B9003D00BA9D
:1007C00085044300442804C40004280609000700E7
:1007D00003280643004A00C33C08C900CA3C009EE7
:1007E0002AA208CB00CC009E2AA1A1163E00BE0082
:1007F000BF003A009027FEC000C100C7004A003A7F
:1008000000B70A532AA02BE6542AA02BA017D20027
:100810000700C5FE3D004B00D32500D4FED5004B9C
:100820000065FED6251CD70007000300D8FED125A1
:1008300000D900D1FE4C00DA2600DBFE4B0065003B
:10084000D62F0486DCE653053E00E48627053AE60B
:10085000A2E52704860C3C27043E000C27038616DD
:10086000E806860E3C008AE708E63C005800E900EE
:100870004906E6FEEA0028A2073E0048E8004927AC
:1008800006BF001300542702EB27053E00EDA0A091
:10089000030EE8850486FEA054053E00BF00F20565
:1008A000BF0013007D04F30047280C080001010776
:1008B000040F037F54FF57FF077F347F3B7F003FC8
:1008C0000103000100000019187F45FF5AFF0B7F4C
:1008D000137F5AFF45FF187F001900000001010334
:1008E000003F3B7F347F077F57FF54FF037F040F98
:1008F000010700010000001B1B7F18FF07FF167F88
:100900001B7F50FF45FF1C7F001C00000000000102
:100910000103025F43FF5BFF19FF247F023F0E1FAD
:10092000000E00000000005B43FF54FF177F167F9E
:10093000037F18FF19FF047F001C00000000003334
:10094000317F337F057F2D7F2DFF35FF037F050F1F
:100950000007000000000019187F41FF5AFF167FB2
:10096000167F5AFF41FF187F0019000000010007A1
:10097000050F037F35FF2DFF2D7F057F337F317FEF
:10098000003300000000001C047F19FF18FF037FE4
:10099000167F177F54FF43FF005B00000000000E2E
:1009A0000E1F023F247F19FF5BFF43FF025F01031D
:1009B000000100000000001C1C7F45FF50FF1B7F52
:1009C000167F07FF18FF1B7F001B00000C0800D8D4
:1009D000C8FC1CFEA4FE5AFFDEFFEEFF5EFFBCFE5D
:1009E00034FEC8FC00D8001C1CFEDAFF6CFEDEFFE3
:1009F0003EFFBEFF7EFFF4FE68FC0068000000685A
:100A000068FCF4FEFCFEFEFFFEFFFEFFFEFFFCFEA8
:100A1000FCFE68FC00680000006868FCF4FE7EFFD5
:100A2000BEFF3EFFDEFF6CFEDAFF1CFE001C060868
:100A30007E3F1F3F7E3E0610FFFFFF00FEFF0F3F81
:100A4000FF003F0F601800F0FFFFFFFFF00000FE07
:100A5000FEFC8E8EFEFCF800ECFCFC1C3CFCF8F06E
:100A600000F8F8F80000F8F8F80078F8F80100F855
:100A7000F87800FBFBFB38333B3800F8F8F8F1C09E
:100A800000F8F8F8003838F8F870383800FCFCFC4A
:100A90000000FCFCFC00F6FEFE8E8EFEFCF800FB67
:100AA000FFFF8F8F8F8FDCFFFF7171FFFFFC00FF57
:100AB000FFFF071FFFFDF000FFFF7FE0F0FF7F3F1C
:100AC000001F3F7F70707F3F1E00000F7F3F7F7FC2
:100AD0000F00006F7F7F73737373007F7F7F010749
:100AE0001F7F7F7B0000007F7F7F0000003F7FFF34
:100AF000E0E0FF7F3700FFFFFF071FFFFDF000FF73
:100B0000FFFFC787C7C703030300000303030001F8
:100B10000101000009F90900F828D000F028F000D0
:100B2000F800F88080000000000070887000F8284D
:100B3000080000FFFFF708FB0B00F820F800F8A8FA
:100B4000880000000000F8A85000F8808000F0281D
:100B5000F000F8887000F9A9890000010101000384
:100B60000303030303030810020F595252590F02E3
:100B700000005555555500001808197DE2DF3F3B30
:100B800015111F9FD9D212D99F1F11153B3FDDE2CE
:100B90007D190F0F010F100F10010E00010E000E36
:100BA0000F01121603021819040201140E010C1091
:100BB000030401190504000F0F0F1010100E0F0091
:100BC000110F00000E0E031E0102111E0302171E5C
:100BD00001020A1F0201071F01010F1F0101001E70
:100BE0002003C8F0FFFF3A0D03966962E8D0636CFA
:100BF00025830C43B194CC59ABA6636502A030E9C0
:100C000068B503E047836A5810A888499BADAA409D
:100C100042A43A545F85814980B0FFFF379ED3D00C
:100C2000FFBF498A29A2118A828B7B8938885BAAF7
:100C300025CA010030927BF7ABA9518841A1058BF1
:100C40004A8C4FA292BB498FAC86219229B049951C
:100C500080A449904D8EFFFFFFFF08008E00000426
:100C600000001816050017181D1E00051C1D05069E
:100C70000505050005050500050515051F050614F4
:100C80001315060514121816050017111D1E000570
:100C90001C19050605001F19050505000519150590
:100CA0000505061913150605141218181110181841
:100CB0001D1D17161D1D05061C1E0500050505003A
:100CC0000505150505050614131506051412181853
:100CD0001818111F1D1D1D1D1711050600051C19D3
:100CE0000505050005191505050506191315060561
:100CF0001412051B05001718101600051C1D1B1EDD
:100D0000050505001B1F000005051B05050506144C
:100D10001315060514121016050017111B1E0005E9
:100D20001C191B06050500191B05050005191B00EC
:100D3000050506191315060514121F1F05061018C0
:100D40001F061018161D1018161D1E001B1D1E0054
:100D500005051B05050506141315060514120510D7
:100D60001818181110161D1D1D191B1E1F1F0619FE
:100D70001B05051F1F191B05050514121315060574
:100D800019061816050017181D1E00051C1D05065E
:100D9000000505000005050005051A1500050614E7
:100DA00005131A1A1A121816050017111D1E000530
:100DB0001C19050605051F190505141A15191A1A17
:100DC00012051B190500050613121811000510184D
:100DD0001D171818161D051C1D1D1E0505050505EA
:100DE0000505150505050614131A1A1A1A121818FE
:100DF000180911051D1D1D091711050605051C19EA
:100E000005050500051915051F050619131A1A1AF7
:100E10001A121016050017181B1E00051C1D1B06B4
:100E20000505050013150500050505131505061430
:100E30000506131A1A121016050017111B1E0005BD
:100E40001C191B06050505191B00050005191B05C6
:100E500005051412131A1A1A121F10181809181857
:100E60001B1D1D091D1D1B06000605001B05050099
:100E700005051315050506141F131A1A1A12050580
:100E80000505050505050505060505050505050511
:100E90000505050505050506050505050505050501
:100EA0000505097B004300000D0C27347100333425
:100EB000433343330197B493B40090F9EBF3E0B7B5
:100EC000D0CDDCC4D0C07000403300780041343352
:100ED00099BB33334319DFCC90B0719DBE7BD0E713
:100EE000B0D3EDBC00D0C073D0C8091B091B99BB9F
:100EF0002D0E1F7EDFCC343D3C3D3C34117394B34A
:100F000004130011D0C3290B010010031D7C0099AC
:100F1000BB91B90B77DDCCD9EFBC3333033DDCC1DA
:100F20000004734299BB199BB394FDCC0DDCC0D374
:100F3000C07098B007330070D9EBB03340079DFE06
:100F4000EBB43333D9EFFCC304709DFCC793B010EE
:100F5000D8C020D3C000092B0733790B9DBE7B334B
:100F60009DBCD9CF1C34D9CB7D9CB1439DBC99FB92
:100F7000E0B4D9CBDDCCD0C37D1C099BB299BB00BA
:100F80001DDEEBFDCC1197BDDCC73333D9CB42332B
:100F900034202D9EBB93B07777DDCCD3C10090B9C0
:100FA0009BB99BB7D9EFFCEDFECB9DFCE4F3EDBC08
:100FB000D1E9FBE4F9CB99FF9CB3EDBCDDCCD7C301
:100FC000D2C01114150721231718162127241C1D20
:100FD0001E2524030600060703031A1521232123D7
:100FE000171625242524373737373737373737371C
:100FF0003737373737373737373737373737373781
:1010000037373737373737373737050505050501A0
:1010100001052B2B2B0505062B2B2B05050328295A
:101020002804020303030303020201043405000041
:10103000000000000100000001000000212300006A
:101040000000252400000100000001000000010054
:101050000000353435080808332F2F2F2F093208A8
:10106000080808080808080808353636080835341E
:101070003737370037372F2F2F3309333434343293
:101080000832080808080808353435353435353451
:10109000353534353737373737370808083534357D
:1010A0002F092F332F330808083234323608080846
:1010B00008083608080808083737370037372F2F51
:1010C0002F2F2F2F08080808083508080834343453
:1010D000080808080808080808080808373737000B
:1010E0003737373737373737373737373737373790
:1010F0000506053737370505053737370505063740
:101100003737370737371018181818111B1D1D1DD2
:101110001D191B05393805191B05030305191B0586
:1011200005050519131A150014120100000000002E
:101130000005000700010000212223000700252AE6
:101140002400000006000700000000000000050564
:1011500005050505052B2B2B2B05052B2B2C2B050E
:1011600005282829280505030303030505050604AA
:101170000505141A1A1A1A1519050605051B19056D
:101180000505061B1910182E111B17161D2A1716F8
:101190001C1E05061C1E052B2B2B2B05052B2B2D92
:1011A0002B050228282828020328282928040303BD
:1011B00003030303340334033403062B2B2B2123B3
:1011C000012B2B2B2B2403282B2B2B070302282945
:1011D0002804030303030303343401030101372FFD
:1011E0002F2F2F3737343131343737083030083725
:1011F0003708080808372F2F2F2F092F080808084D
:101200000808333333333333323232323232080860
:1012100008080808080808080808360836083608C4
:101220003737373737371008FFFFFFFFE0DB9B9B6F
:10123000ADB097A7DBE3FFFFFFF1F6F8FCFCFCF293
:10124000ECE0F2ECF0F6F9FFDFAFBF674051555527
:10125000435F58466DA6A8DFFFFFDFAEBE7E7C6110
:101260006C7274BAADDFFFFFFFBF7F933405314965
:101270001136967ABCFFFFFFFFFFFF9FAEAC908C4C
:1012800078600CAE9FFFFFFFC3A1F0A3C08763F19E
:101290006380C7A1F3A1C7FF0E08FFFFFF1FAFEFD9
:1012A000AFEF1FFFFFFFFFFFFFFF0F577BDBF5F1E6
:1012B0000FFFFFFFFFFFFFF1852BBDBD6DFDFB05A0
:1012C000F1FFFFFFE7EB81AD3E2E76FEF20DEDEB79
:1012D000E7FFFFFF3FDFEFAFE767572F1FFFFFFF7E
:1012E000FFFF9F4FF7F75373B32B17CFFFFFFFC7D6
:1012F000935DDD757DBD99051BEBF7FFD385464EEC
:101300007E76BADE89051BBBD7CFFFFFFF1FAFF785
:10131000B7F7F76F1FFFFFFFFFFF0FD77BFBDBFB6D
:101320007B77370FFFFFFF874BFD7DCD7DFD7D3B3D
:101330007B378FFF8743ED7DFE6EC6F67E3E7D3B9D
:101340001B871818FFFFFFFFE7D72F272B2D6D5E98
:1013500056D68E8E06E5ED9B47BFFFFFDFED2DC312
:10136000D7B1A603A7222415CACEE4F0D130B9A381
:10137000C335EDDBFFFFFFFFFFFFF9F4F9FCF88455
:101380006701F7F6F9FBFCFFFFFFFFFFFF7FBFBF21
:10139000BFBF7F7FFF7FBF3F7F7FBFBFBF7FFFFF9D
:1013A000FFFFFFFFFFFC7AF872E1E16502020A0528
:1013B000950D0AAAD4E4FBE71FFFFFFFFFF2EDDA69
:1013C000D5B6AEADAEAEADAEAEA6A7A7A3A3A9B738
:1013D000D4DBEDF3FFFFFFFF8F77EF8703C7F3E168
:1013E00080E3C77B87FF7FBF7FBF7FFFFF7FBFDFBC
:1013F000572885E7F7EFCFAFCF77FF906F60454B6A
:10140000A7C3F5F8FCFBF4E9D2CCD8D9CCD9B8BD48
:10141000788EDFC7ECEBF7FFFFFFFFFFFFFFFFFF5B
:10142000FFFFFF9F2F7FFF3F0601031F3F7F3F17F7
:101430000F3FFFFF7FBF1F43850F0741E0E0F0F044
:10144000707030E0E0D2A4697E78B6C1F8F6EFEFB4
:10145000ECE6C0C5AC47474C44654667B3DCE1F8F1
:10146000FEFFFFFF0600000A001200150020002CFE
:10147000000102000240509D0E41FAFD3F039F40D3
:101480003041FFFD14049F40009F2BAF32AF2EAFC1
:101490002EA72DA7FEFC054CFEFC054C02FC054DBD
:1014A000FE05DFFE0400003E003F00580000010181
:1014B000019E00010101403041F85005019D18FDD9
:1014C00001024CFEFD01024C00FD01024CFEFD013B
:1014D000024C00FC034CFCFC034CFEFC034C00FDE6
:1014E00001034CFCFC034CFEFC034C00FC039F9FDF
:1014F00019A30DA315A30DA314A30DA312A30DA34C
:1015000014A30DA315A30DA3FE0DA319A3A30DA34F
:1015100019ABA3FE76BB6346BB2114BC420D9902F6
:1015200004000003000B001A000000010040009FAF
:10153000403F9D10FD3F029F41F8FD01034CF9FC27
:10154000034CFBFC034DFE31A735A738A735A7FE9A
:101550000A0000100018002000210025003C004176
:101560000048004F00000102039E000102034018E2
:101570009D1A4E060BFD03059F401841FAFD030519
:101580009F403041F4FD06089F9F12DFDFFE4C00B4
:10159000FD03064C03FD03064C00FD03064C05FD50
:1015A0000206FC07FE06A712A7FE10A30FA30DA7B5
:1015B000FEDFFD0209C700FE2AA7FE090000230086
:1015C00029002C003000370047004F005600010270
:1015D00000039E01020003E07F41FA4010FC084036
:1015E00020FC084030FC084CFF4020FC084010FC68
:1015F000083BA34D9F9D10FD03049FFC059FFD0329
:10160000079F403041FF02DFFEFC064CFCFC064C0D
:10161000FBFC064CF9FC064DFEAF402041FF15CF08
:10162000FECF41F84020AFFE3BA337A3FE080000E9
:101630000D00130018001B0030003C0044000002A5
:1016400001039E00020103402041FCFD1F079F9DF6
:1016500030FD07049FFD3F06009F40009FFD0105F0
:101660004B03FD01054BFFFD01054B03FD01054B40
:10167000FBFE31403F41F0AF401041FCCFFE014046
:10168000204E011FDFFE19AF20AF1CA71BA719AF0B
:10169000DFFE0400000300120021000100000040F2
:1016A000009F9D249E01000000403041F4FD3F0258
:1016B0009FFD03034CF9FD01034CFEFD01034DFEAC
:1016C0000EA70EA30EA3FE10100000000000C080A5
:1016D000F878FCBCFE5EFFEEFFEEFF5EFFBCFE781E
:1016E000FC80F800C00000000000000003030702B7
:1016F00007000301030207030703070207010300B2
:101700000302070307000300000000001810F8D0D0
:10171000FC2CFEAEFF3EFFBEFFBEFF3EFFAEFF2C29
:10172000FED0FC10F80018000000000000000000CF
:101730000100010103030703070307030701030077
:101740000100010000000000000000000000808097
:10175000F000F8A8FCBCFE7CFE7CFEBCFEA8FC00F1
:10176000F880F0008000000000000000000001018F
:101770000300030107050F060F060F050F01070001
:101780000301030001000000000000000000808051
:10179000F020F8D8FC7CFEFCFEFCFE7CFED8FC2091
:1017A000F880F0008000000000000000000001014F
:1017B000030007060F0D7F3D7F3D7F1D3F061F0085
:1017C0000701030001000000000C080006060F00DE
:1017D00006000000000000000000000000000606F7
:1017E0000F00060A080000007F3CFF38FF007F283A
:1017F0007F38FF3CFF007F00000000007F40FF10AB
:10180000FF207F207F10FF40FF007F0000000000CE
:101810007F6CFF58FF50FF50FF58FF6CFF007F00A8
:1018200000006060FF7CFF78FF70FF70FF78FF7C36
:10183000FF60FF00600808C7C3018D151DD5FFE3D9
:10184000E1C0064ACEEAFFE3E2C0460A8EEAFFC7DD
:10185000C5000D941D94FF0808AA00800080008038
:1018600000FF9F87B9FEF9E79FFFF3E1A080A0E1A9
:10187000F32244442222444422F5CAF5FFD72BD751
:10188000FFFF83C1E1F1F983FFFFF1CCA8A0A8CC51
:10189000F1FF87B381919387FFFFFDFFBFFFFFF744
:1018A000FF215D515D15634B87098D339339A55732
:1018B000AB6F69B16F75758D7569A57B21933963C0
:1018C000453F4B45210945032709637B8D69274522
:1018D0000921876F8DA545270357889F6AB10A099B
:1018E0000A336351750F99459F758D99999F99A5F5
:1018F000097B0FB12D7B3F099915BF2DBF45BF5DFA
:10190000BF75BF8DBF3F09101000009068C4B44A76
:1019100042224284946890000000000162FF969A7F
:10192000E8F8CACEBF62010000D5F08D14A1C881CD
:10193000CFD9F1AF200012000003000B00220029D4
:1019400000300037003E0050005200650068006B18
:10195000006E007100780089008F000701000E40C2
:10196000009F9D304030FD0F029F41FE9C02FD0311
:10197000039C02FD03049C02FD03059C02FD03067B
:10198000FE25AF28AF2CAFFE25AF28AF2DAFFE252B
:10199000AF2AAF2EAFFE25AF2AAF2FAFFE4000FD1E
:1019A0000F08FD0E09559D20403041FFFC0A9FCFD6
:1019B000FE402041015403FD030AFD030BFD030C0F
:1019C000FD030DFE01CFFE04CFFE06CFFE0BCFFEC2
:1019D000FD1F08FD370F9F4030FC104020FC1040D9
:1019E00020FC114020FC10FE41F8A543C9FE41FF38
:1019F000BF43AFFE0700000A00120015001E0025BD
:101A0000002A0000010202403041FF9D18FD3F0303
:101A10009F401841FDFD3F049F40009F01CF06CF2E
:101A200005CF0ACFFEFD0206FD0205FE2DA72AA75F
:101A3000FE2DA729A7FE1010FFFFFFFFFFFFFFFFEE
:101A4000FFFFFFFFFFFFFFFFFFFFFFFFFFFFFFFFA6
:101A5000FFFFFFFFFFFFFFFFFFFFE3C7FFE7F3FF0E
:101A6000FFFFFFFFFFFFFFFFFFFFFFFFFFFFFFFF86
:101A7000FFE3C7FFE7F3FFFFFFFFE7E79999E7E71A
:101A8000FFFFF9F3FFE3F1FFFFFFE3C7FFE7F3FF1A
:101A9000FFF3F3CCCCF3F3FFAF7B7F7D7F7DABFF18
:101AA000EBBD7F7D7F7DABFFAB7D7F7D7F7BAFFF20
:101AB000AB7D7F7D7FBDEBFFAB7D7F7D7F7DABFF12
:101AC000FFE3C7FFE7F3FFFFAB7D7F7F7D7BAFFFCA
:101AD000EBBD7F7D7F7DABFFFFFFFFFBFFFFBFFF08
:101AE000FFFFFEFFFFFFF7FFFFFBFFFFFFDFFF7FB3
:101AF000FFFFFFFDFFFFFFBFFFFF7F7FFBFFEFC784
:101B0000DBDBDBD6CFFFFFDFFEDCFDFDFCFDDFFF17
:101B1000F7E3ED6DEDF3F7FFFFFFFFFFFFFFFFFFC3
:101B2000FDF1E9D5DBD7CFFFFFFFCFD7DBD5E9F15B
:101B3000FDFFFFFFFFFFFFFFFEFDFBF7E7DBBD7EC5
:101B4000FEFDFBF7E7DBBD7EFEFDFBF7E7DBBD7EC1
:101B5000FEFDFBF7E7DBBD7E00FFFF0066EEEEEE6D
:101B6000EEEEEE6600FFFF0000FFFF0066EEEEEE19
:101B7000EEEEEE6600FFFF00FFFFDDDD7777FFFF93
:101B8000FFFFDDDD7777FFFFFFFFDDDD7777FFFF0D
:101B9000FFFFDDDD7777FFFFFFDDDDFFFF7777FFFD
:101BA000FFDDDDFFFF7777FFFFDDDDFFFF7777FFED
:101BB000FFDDDDFFFF7777FFCF87397D7DFEFEFEFE
:101BC000EE6655113377FFFFFFFFDDDD7676FEFE13
:101BD000D68AA9B91B47FFFFCF85397D7DFEFEFE62
:101BE000EE665531BB7777FFFFDDDDFFFE7676FED3
:101BF000D688A9BB9B4777FFAE57AE5DAE5DAE57AB
:101C0000AE57AB57AB57AB57AB57AB57AE57AE5DB5
:101C1000AE5DAE57AE57AB57AE57AB57AB57AB57A2
:101C2000AE57AE5DAE5DAE57AE5DAE57AE57AB577D
:101C3000AB57AB57AE57AE5D3FCFF7FBFDFDFEFE9A
:101C40007EBE5E3E5E3E5E3E00FFFFFFFFFFFF0288
:101C500001409028102054025E3E5E3E5EBE5EBE95
:101C60007EFEFDFDFBF7CF3F042250AA14A04000EA
:101C700001FFFFFFFFFFFF0020542E17289482C0B2
:101C8000E0FFFFFFFFFFBF003F5F3F5F3F5F3F5F42
:101C90003F5FAF97CBE5F2FC007FFFFFFFFFFFE068
:101CA000C0829528172E5420FCF1EBD7AF9F3F5FE1
:101CB0003F5F3F5F3F5F3F5FFF3F87DBCDDD2D85B0
:101CC000C956CE162A56355300A552391AA04B05CF
:101CD00002F1FCFEFEFFFF7F3355366A16CE56C971
:101CE000852DDDCDDB873FFF7FFFFFFEFEFCF10290
:101CF000054BA01A3952A5002F5F2F170B05824004
:101D0000A05502D4CF952A00D6CC960C50395AA9AA
:101D10009408E1F3E5AA4500002A95CFD40255A026
:101D20004082050B172F5F2F0045AAE5F3E10894C9
:101D3000A95A3950844ED4CE5E3E5E3E5E3E5E3E33
:101D40005E3E5E3E5E3E5E3EE4EAE44010281C2AB3
:101D50005C3A54288048D6CC00946AE70C52A5001F
:101D600000FFFFFFFFFFFF000052295C18A5520093
:101D700000FFFFFFFFFFFF0035762A062A76367147
:101D800035662A162A7636513F5F3F5F3F5F3F5FD9
:101D90003F5F3F5F3F5F3F5F00FFFFFFFFFFFF00D1
:101DA00000A5520CE76A940000FFFFFFFFFFFF0051
:101DB000005225185C2952000051A275E2440B170D
:101DC000AF97AF06A059BA79FFFEFCFDFCF0EAD54B
:101DD000CFD7CBC3AC5E3C5DF275B2610896AF9FC6
:101DE0002F5F2F168871FA792C598094AB9F2F5F43
:101DF0002F5FAE84A0592A59BA79BA5106AF97AF6E
:101E0000970B44E275A251003C5C2E9CC3CBD7CF0C
:101E1000D5EAF0FCFDFCFEFFFFFF3F8F77FBFBFDEB
:101E2000FDAD53ABD78F3FFFE1CA952A5D2E572BEF
:101E3000552B552B95AA95C0FFCE1821FF2118CE02
:101E4000FF3F7FD5ABD57F3FFF7FFFAA57AAFF7F1C
:101E5000FFE78C10FF108CE7FFFF7F3F8F57278B2A
:101E6000D9FDFDFEFEFEFEFD77089D0FFE3DFAF456
:101E7000E1D7EBD1A7DF8FC7FDFEFEFEFEFEFEFD24
:101E8000FDFEFEFEFEFEFEFDAF1FBF4FA7C79F3F3C
:101E90009FCF9F4FA75F9F1FFDFEFEFEFEFDFDD95A
:101EA000AB57874FBF7FFFFFA74F9FCFA1D3E7D18E
:101EB000EAFC3AFD0F5D8877A7CF67D1EB7769F52C
:101EC0001BB07A9CE6DDE2FC29502884C9D4CAE420
:101ED000E9F3FFFFFFFFFFFFFCE3DEE59E7DB813A4
:101EE000E97167D3E947EFD7FFFFFFFFFFFFF3E596
:101EF000E8D4CAD588502851A7CF67118B572189BC
:101F0000D9FCFCFEFEFEFEFC21089D0FFE3DFAF40E
:101F1000E1D7EBD1A7DFAFD7FCFEFEFEFEFDFCD97B
:101F2000A9518743A947EFD7A74F9FCFA1D3E7D1A7
:101F3000EAFC3AFD0F5D885100FDFDFDFD0515151C
:101F4000151505FDFDFDFD00006F6F6F6C1A6A6AC7
:101F50006A6A1A6C6F6F6F00FDFD01F97901F9F97A
:101F6000F9F901F9F901FDFD7F7F80BCB981B8BFA6
:101F7000BFBF80BFBF807F7F0FF70B05050505053D
:101F800005050505050BF70F007F80C0C0E0E0E008
:101F9000E0E0E0C0C0807F0002F2A252A252F20252
:101FA00002F2A252A252F202003F6A556A553F0065
:101FB000003F6A556A553F00027222522252720255
:101FC00002722252225272027F5355657F4177413D
:101FD0007F635D637F41757B0272225222527202DF
:101FE00002722252225272027F417F417B776F41FF
:101FF0007F417B776F417F7F5E3E5E3E5E3E5E3E11
:102000005E3E5E3E5E3E5E3E007F7F730D72336FCE
:1020100033731F6E717F7F007AFA7ABA7AFA7AFA8E
:102020007AFA7ABA7AFA7AFA6F6F6F6E6F6F6F6FA9
:102030006F6F6F6E6F6F6F6F00BDBF7FFFFFFFFF32
:10204000FFFFFFFF7FBFBD00807E7E819A9A9A1AB4
:102050009A9A9A9A817E7E8001DADAC115E5E5E4E2
:10206000E4E5E515C1DADA0100DDEEEEEEEEEEEEC6
:10207000EEEEEEEEEEEEDD0000FF203636363234C8
:10208000323036303620FF00805F509B989B9B1883
:102090009B989B989B505F0001BEBEBEBEBEBEBE5D
:1020A000BEBEBEBEBEBEBE0100FF406C606C6C60BA
:1020B0006C606C606C40FF0001FEFEFEFEFEFEFEEA
:1020C000FEFEFEFEFEFEFE01F08B6B6B8BCB8B4BA0
:1020D000CBCBCB8B6B6B8B70FEFDFB37C7EBEDEE89
:1020E000EEEDEBD727DBBD7EFEFDFBF4C2D5A5658B
:1020F000E5E5D5C2E4DBBD7EFE0DA34159BCBCA421
:10210000A4B4BC5941A30D7EFEF0C790AF5E405E03
:102110005E405EAF90C7B07E00000000000000008F
:1021200000000000000000000000000000000000AF
:102130000000000000000000FF03FBFB5B5BD97A9E
:102140005A59DB5BFBFB03FFFFFCFBFBFBFB8373D1
:102150007383FBFBFBFBFCFF007E7E006A6A6A6AFE
:102160006A6A6A6A007E7E00007D017979716D512C
:10217000516D717979017D0000FE02160A160A166A
:102180000A160A160A02FE00007D017979716D5166
:10219000516D717979017D00DC1B991B2320E61FAD
:1021A0001A203B1B2022BA1CB71ABE29CE19A4192B
:1021B000D820D820D820D820F31D1926E11F6E1E64
:1021C000D51AB919B919B919C9218D20BC1DCC2549
:1021D000121B000006011501260137014A015D01AD
:1021E000720188019F01B801D201EE010B022A029F
:1021F0004B026E029302BA02E40210033F03700323
:10220000A403DC03170455049704DD0427057505B2
:10221000C80520067D06E0064907B8072D08A9086D
:102220002D09B9094D0AEA0A900B400CFA0CC00DB1
:10223000910E6F0F5A1053115B1272139A14D4152A
:1022400020178018F519801B231DDE1EB420A6223E
:10225000B524050800000000001E0505051E1F1519
:1022600015150A0E1111110A1F1111110E1F151546
:1022700015111F050505010E1111151D1F0404047C
:102280001F00111F110010110F01001F04040A117B
:102290001F101010101F0204021F1F0204081F0E3F
:1022A0001111110E1F050505020E111109161F054A
:1022B000050D12121515150901011F01010F10104E
:1022C000100F030C100C031F0804081F110A040A46
:1022D0001101021C020111191513110E1915130E0B
:1022E00000121F10001915151512111515150A07E2
:1022F00004041E0417151515090E151515080101FE
:102300001905030A1515150A021515150E000010FA
:10231000000000201000000000170000000115035D
:102320000000000300000012000000100804020179
:10233000001F1F0E04040E1F1F000C0E0F0E0C06B4
:102340000E1E0E06040E1F0E04040E1515041010AA
:10235000101010000A040A0000000E110000001105
:102360000E0000040E04000004040400FFFFFFFF41
:10237000FF0011241FBECFEFDAE0DEBFCDBF11E0BA
:10238000A0E0B1E0EEEAFAE602C005900D92AE38A8
:10239000B107D9F727E0AEE8B1E001C01D92AE3435
:1023A000B207E1F70E94612E0C9455350C940000A1
:1023B0006F927F928F929F92AF92BF92CF92DF9255
:1023C000EF92FF920F931F93CF93DF93DC01FA01FB
:1023D0001491319654913196C12FD0E0222309F106
:1023E000CC24C394D12C852F877011F4D12CC12C0F
:1023F000E52EE694E694E694EC0CFD2CF11CEC9EA4
:10240000C001ED9E900DFC9E900D1124033011F43F
:10241000880F991F289F7001299FF00C1124EE0D41
:10242000FF1D7D01EC0EFD1E1E141F040CF06BC081
:10243000A038B1050CF067C0CB01850F911D1816AF
:1024400019060CF060C0603471050CF05CC0309768
:1024500009F459C0362F3770CB0177FD079623E07A
:10246000959587952A95E1F7282F77FF04C03323A8
:1024700011F02FEF280F662777276A1B7B0BB7FD1C
:1024800002C070E060E090E89A1B40E8E416F104B6
:102490000CF4912F961BE22E022E000CFF08DE2C6E
:1024A000D0942F3F0CF0D12C41E0852F877009F498
:1024B00040E0B52EB694B694B6944B0DE40EF11CE4
:1024C00089E0E816F10414F048E0421BB42EBD1870
:1024D0002D0D40E8240370011124AE0DBF1DA60F81
:1024E000B71F1D9D600D711D1124AF01460F571FB1
:1024F000C32E032E000CDD08033009F4C7C090F48E
:10250000023009F474C0DF91CF911F910F91FF90B9
:10251000EF90DF90CF90BF90AF909F908F907F9083
:102520006F9008950A3FA1F1B20E0B3F61F72B1592
:1025300051F3BD01625B7C4F10E000E0091708F029
:102540009FC0FA01E00FF11FE491F0E04F010C2C65
:1025500002C0880C991C0A94E2F727FD06C0FB0113
:102560008081F82CF0948F218083332361F0273011
:1025700054F47B01F0E8EF0EF11CA92CA094F701B4
:1025800080818A2180830F5F1F4F6F5F7F4FD6CF7F
:10259000B20E2B1509F4B7CFBD01625B7C4F10E082
:1025A00000E0091708F066C0FA01E00FF11FE4919E
:1025B000F0E04F010C2C02C0880C991C0A94E2F741
:1025C00027FD04C0FB01808188298083332351F0DB
:1025D000273044F47B01F0E8EF0EF11CF701808115
:1025E000892980830F5F1F4F6F5F7F4FDACF6FEFB7
:1025F00070E0032E02C0660F771F0A94E2F7609521
:102600007095972E8B2C820E281509F47CCF8D01A6
:10261000025B1C4FF12CE12CE91630F5FA01EE0DAE
:10262000FF1DE491F0E03F010C2C02C0660C771C0A
:102630000A94E2F727FD05C0F801808186238629E8
:102640008083332359F027304CF45801F0E8AF0E63
:10265000B11CF5018081892187298083FFEFEF1A62
:10266000FF0A0F5F1F4FD8CF2F5F4C0F5D1FA05881
:10267000BF4FCACF2F5F4C0F5D1FA058BF4F89CFF0
:102680002F5F4C0F5D1FA058BF4F51CFE92EF12C8B
:10269000FA01E60FF71FA25BBC4F60E870E06E190D
:1026A0007F09CE19DF098E01000F111F41E050E0B4
:1026B0007A01032E01C0EE0C0A94EAF7592F4B2D34
:1026C000892E932ECF93DF93ED01EF96EF9622960E
:1026D000A590C590992059F0AE9C5001CE9C600108
:1026E00027302CF4F880D094FD20FB28F992222387
:1026F0003AF0FC90C094FC20FA28FD920C948113CF
:1027000011965A9529F74A9551F0582D2395112481
:10271000E00FF11DA60FB11DC60FD11DD9CFDF915E
:10272000CF911124F0CE3FB7F89480916D02909133
:102730006E02A0916F02B091700226B5A89B05C0F1
:102740002F3F19F00196A11DB11D3FBFBA2FA92F30
:10275000982F8827BC01CD01620F711D811D911D2D
:1027600042E0660F771F881F991F4A95D1F7089599
:1027700090E0880F991FE0917302F0917402E80FC6
:10278000F91F859194912091710230917202820F0C
:10279000931F08950F9303E00E94D8110F9108959D
:1027A0000F930AEF0E94D8110F9108950F930BEF2A
:1027B0000E94D8110F910895FF920F931F93CF930A
:1027C000DF93182FD62F042FF22EC12FD01798F495
:1027D0006D2F70E08C2F90E028E342E552E2F1107B
:1027E00007C00E94D613CB5FCE3780F3D85FEDCF02
:1027F0000E94D013F8CFDF91CF911F910F91FF90DE
:1028000008950F9302E00E94D8110F910895F89453
:1028100087E78093000880930108A89588E180935A
:10282000600088E080936000FFCF8F929F92AF920C
:10283000BF92CF92DF92EF92FF926C01F12CE12CCC
:102840000E9493134B015C010E949313681979094C
:102850008A099B09683E734081059105A8F321E030
:10286000C21AD108E108F10888EE880E83E0981EAC
:10287000A11CB11CC114D104E104F10429F7FF909B
:10288000EF90DF90CF90BF90AF909F908F90089582
:102890008FB18095807F669B88601C9B84600895C3
:1028A000109267023E983F9808953E9A3F9A81E0C1
:1028B00080936702089590916602982329F490917D
:1028C0006502982381E009F480E00895CF93C82F32
:1028D0000E944814982F9C2381E09C1380E0CF91A4
:1028E0000895EEE4F3E081118FEF0024819381934A
:1028F000819381930394D1F70895209161023091DF
:1029000062022F703327232B59F49091640221E047
:10291000922790936402909163029F5F9093630269
:102920009091640291110C947114089580E80E94B2
:102930005B14882321F081E080930B01089588E1E6
:102940000E945B14811110920B0108958091AB01DC
:10295000863018F48F5F8093AB018091AB0190E0DB
:102960002091CF01283011F02D3029F4855B9E4F46
:10297000FC01808108958C5B9E4FFACFE82FE6958D
:10298000E695E695660F660FE60FFF27FF1FEE51EF
:10299000F44FE491877021E030E001C0220F8A9566
:1029A000EAF7E22381E009F480E008950F931F9392
:1029B000CF93DF9322E93BE070E0A82FB0E0C62F71
:1029C000D0E0F9014491042F10E0319694913196B2
:1029D00044913196E491A017B10784F0400F512F34
:1029E000511DA417B50754F4492F50E0C417D5075B
:1029F0002CF04E0F511DC417D50734F07F5F2C5FAC
:102A00003F4F7431F1F67BE0872FDF91CF911F911B
:102A10000F9108950F931F93CF93DF9390E2699FD7
:102A200090011124280F311D233092E0390709F459
:102A300058C00CF08BC0213D310509F43BC00CF0AF
:102A400056C02B33310509F443C00CF035C0213298
:102A5000310509F4B2C03CF52630310509F4BFC098
:102A6000162F082F0E94D614843108F06FC1E82F6A
:102A7000F0E0E15CFA4E612F802F0C944F356E161A
:102A80006E1668166E167B167B168116871617163D
:102A90001716171617163F168D168D168D169716C4
:102AA0009D169D16A3162A32310509F498C02B32C3
:102AB0003105B1F68DEA16C02B3A310591F054F488
:102AC0002D33310509F479C02435310509F0C8CF1B
:102AD00082EA08C0243B310521F0203C310509F091
:102AE000BFCF8AEADF91CF911F910F9108952037D0
:102AF00091E03907B1F394F4283391E0390789F371
:102B000024F42D3F310521F3ABCF243591E0390773
:102B1000F9F22136314009F0A3CFE3CF253E91E011
:102B20003907F9F254F42B3791E0390709F457C00B
:102B30002A38314009F094CFD4CF2D3E91E03907A7
:102B400081F22130324009F4B5CF8ACF213E92E0A4
:102B5000390739F2A4F5233792E0390711F2A4F4CA
:102B6000223392E0390709F4BCCF2CF428303240EC
:102B700009F4AECF75CF2A3392E03907F1F02D3545
:102B8000324009F06DCFADCF253C92E0390739F1E5
:102B90005CF4273792E0390709F4A3CF2F3832408D
:102BA00009F05ECF82E99ECF2C3C92E0390709F410
:102BB00098CF2E3C324009F053CF8CEA93CF22328B
:102BC00093E0390709F484CFBCF4243F92E039073D
:102BD00009F470CF34F4223F324009F041CF8BEA40
:102BE00081CF283093E0390709F47BCF213233407D
:102BF00009F036CF8EEA76CF213793E0390709F412
:102C000070CF54F42B3493E0390709F461CF29369F
:102C1000334009F025CF65CF2E3893E0390709F40A
:102C200060CF233F334009F01BCF87EA5BCF0E9480
:102C3000BE14811151C0612F81E0800F0E94BE142B
:102C4000C82F6FEF610F802F0E94BE14D82F612F05
:102C50008FEF800F0E94BE14DD0F24E0829FC00121
:102C60001124D82BCD2B61E0610F802F0E94BE1460
:102C700028E0829FC00111248C2B805F33CF0E94FB
:102C8000BE14882311F08FE02DCF612F81E0800FDB
:102C90000E94BE14C82F6FEF610F802F0E94BE14D8
:102CA000D82F612F8FEF800F0E94BE14DD0F24E01C
:102CB000829FC0011124D82BCD2B61E0610F802FA2
:102CC0000E94BE1428E0829FC00111248C2B0ACFE1
:102CD0000E94BE148823E1F18FE104CF0E94BE144C
:102CE0008111FACF612F802F0E94D614982F990F4F
:102CF000990F890FC2CF0E94BE14882321F282E26D
:102D0000F1CE0E94BE148111E7CF8AE1EBCE0E9482
:102D1000BE148111F4CF83E2E5CE0E94BE1481116E
:102D200019C0612F802F0E94D614895EDBCE0E94CD
:102D3000BE14882389F080E3D5CE0E94BE14882378
:102D400081F381E2CFCE0E94BE14FBCF80E0CACED9
:102D500080E2C8CE8FE2C6CE87E2C4CEEF92FF9269
:102D60000F931F93CF93DF93AC01813F9B4008F0FB
:102D70009EC061348CE0780708F099C0CB01E4E094
:102D800096958795EA95E1F7E0ECE89F9001E99F39
:102D9000300D1124CA01F4E096958795FA95E1F774
:102DA000280F391F273F87E4380709F490C008F03F
:102DB0006DC025348FE0380709F49EC008F04CC080
:102DC000293586E0380709F480C02931374009F4F5
:102DD00083C0CB019A01E0E6F0E0BF010E942735F5
:102DE000D62F7C01C901BF010E942735C62F8C0157
:102DF0006D2F8C2F0E940A15982F9F7724E0F69450
:102E0000E7942A95E1F726E02E9DF0012F9DF00D25
:102E1000112434E0169507953A95E1F7E00FF11F7C
:102E20009F3008F085C024E2929FE00DF11D11242F
:102E3000EE59F34F14918F3708F491C01C3009F408
:102E4000D4C008F0C9C01A3009F4CFC01B30B1F4A7
:102E500080910701181B12C0233485E4380709F458
:102E600046C0263F87E4380781F12931344109F013
:102E7000B0CF80913A0286FF38C01AE3812FDF91EC
:102E8000CF911F910F91FF90EF9008952D358DE513
:102E90003807D9F070F423318AE4380711F12D395D
:102EA0003C4509F096CF80913A0280FD92CF1FE118
:102EB000E5CF2B3488E8380721F12C328DE838072C
:102EC00019F12B3C354709F084CF18E3D7CF809117
:102ED0003A0281FD7ECFEBCF80913A0282FD79CF1D
:102EE000E6CF80913A0285FDC8CF19E3C7CF809124
:102EF0003A0284FFFACFC1CF80913A0287FFF5CF23
:102F0000BCCF80913902F5CF20913502E22FE695B2
:102F1000E695E695F0E0EE5DFD4F858990E027703F
:102F200002C0959587952A95E2F780FFDECFA5CF61
:102F3000903208F042C0492F50E0983170F524E2F9
:102F4000929FE00DF11D1124EE59F34F14911F7063
:102F5000183008F470CF185E8F3708F08FCF6D2FC0
:102F60008C2F0E94D614883008F468CF8A3038F14C
:102F70008A3009F063CF1F31B8F51123D1F1133036
:102F800009F43DC08FEF810F823028F0143019F022
:102F9000173009F053CF1AE028C04850510994E285
:102FA000949F9001959F300D1124E20FF31FEE596D
:102FB000F34FE4911E2F1295CACF985034CF1F3192
:102FC000D0F41230D1F08DEF810F8230C0F0173085
:102FD00009F034CF12E052CF1E3039F008F438CF68
:102FE0001F3009F04BCF34CF1EE080910701180F3E
:102FF00045CF1CE0FACF10E241CF10E03FCF15E003
:103000003DCF8091BA01811106C08091B5018295B2
:103010008F7083520895809135028E5208954091A9
:10302000BB015091BC012091BD013091BE01FA015C
:1030300031978E179F0774F0425F5F4F8417950793
:103040004CF46217730734F0205F3F4F81E0621742
:1030500073070CF080E00895AF92BF92CF92DF9299
:10306000EF92FF920F931F93CF93DF93C0902202B2
:10307000D0902302E82FF0E0EE0FFF1FDF01AA0F30
:10308000BB1FAF58BE4FCC91CC0DDD2DD11DE090B4
:103090002402F090250211960C910E0D1F2D111D8A
:1030A000EE0FFF1FED58FE4FB080A180B801CE019A
:1030B0000E94AE168E3060F080E0DF91CF911F91BC
:1030C0000F91FF90EF90DF90CF90BF90AF90089559
:1030D000CB0CD11CEA0CF11CB701C6010E94AE1644
:1030E0008E3050F7B801CE010E940F188111E4CF45
:1030F000B701C6010E940F188111DECF81E08093D5
:10310000200280912D028D3028F48091C2018F5FC2
:103110008093C20181E0D1CFE2E2F2E0808191812F
:10312000C89790935902809358028281938148975F
:1031300090935B0280935A02089540914B0250E0B5
:1031400030E020E090E0FC01E20FF31FEE52FE4F72
:103150002417350764F4D901AE5DBD4F9A966C9182
:1031600060832F5F3F4F2730310569F70895108244
:10317000F8CF8091C00128E0829FC00111248E3BCE
:103180009105ECF48E33910514F48EE390E08E53A8
:103190008093CE018091C10128E0829FC00111245B
:1031A0008E3C910574F48E31910514F48EE190E01B
:1031B0008E51809309018AE080936002089580E82F
:1031C000E7CF80EBF6CFBF92CF92DF92EF92FF92E4
:1031D0000F931F93CF93DF93082FC62FB42EC09069
:1031E000C301CC2079F010920C0184E00E945B14A2
:1031F0002091D2019091A801882339F1921708F506
:103200002093A801EE24E394D12CF12CD0E010E01F
:103210008E2D90E02091A801C11002C02091D20112
:1032200030E02F5F3F4F821793073CF58E529E4F41
:10323000FC0120812E3F79F4F6E0DF0EF12CE394BF
:10324000E7CF81E080930C01DDCF9217D8F69F5F26
:103250009093A801D7CFBE016D0D711DC8018F0DD0
:10326000911D42E552E2BB2029F00E94D01386E076
:10327000F80EE5CF0E94D613FACFDF91CF911F91C0
:103280000F91FF90EF90DF90CF90BF900895CF9374
:10329000DF93662339F09091010198131092A801F1
:1032A000809301016093C30170E060E0FB01E7548B
:1032B000FA4F882339F0E491F0E031966E0F7F1FCA
:1032C0008150F4CF44916F5F7F4F460F572F511DB0
:1032D000641775070CF033C0FB01E754FA4F949163
:1032E0009E3F49F4E82FF0E0EE52FE4F91838F5F4E
:1032F0006F5F7F4FEDCF30E020E0D901F901E05062
:10330000FF4F992339F0E491F0E031962E0F3F1FE3
:103310009150F3CF2491FD0131962E0F3F2F311D97
:103320001196A217B30724F7FD01E050FF4FE49177
:10333000C82FD0E0CE52DE4FE9838F5FF1CF80936C
:10334000D201DF91CF91089581E00E94711420E0B5
:1033500047E059E16EE170E088E390E00E94D61307
:1033600061E08BE20E94471940E060E185E20C9445
:10337000E31820E040E460E380E00E94DC138091E9
:10338000600261E08C5D0E94471941E062E384E0E5
:103390000E94E31881E080935E0208956F927F920D
:1033A0008F929F92AF92BF92CF92DF92EF92FF9255
:1033B0000F931F93CF93DF9381E00E94711480914C
:1033C0003A0283FFCCC080912D028D3008F0B0C04E
:1033D00040E8742E30E4632E872C912CE090CE01CF
:1033E000F12CE701C80DD91D83E0D595C7958A95C5
:1033F000E1F7C0900901D12CA62CB12C86010A0D51
:103400001B1D93E0159507959A95E1F78C2F8695EE
:1034100086958695902F969596959695990F990FE6
:10342000282F290F3327331FF90123E0F595E7955E
:103430002A95E1F7EE5DFD4F27A530E0890F8770F3
:1034400002C0359527958A95E2F720FF6FC0602F5F
:103450008C2F0E940A15602F87FD58C08C2F0E9468
:10346000BE1481113DC028E0B601687F6A0D7B1D46
:103470006C197D09C701887F880D991D47E558E1C2
:103480008E199F090E94011438EF630E6312A6CFB4
:10349000730E73129FCF2091570223706091C10168
:1034A00088E0689FB00111246C197D098091C001EA
:1034B00038E0839FC001112445E358E18E199F092C
:1034C000DF91CF911F910F91FF90EF90DF90CF9000
:1034D000BF90AF909F908F907F906F900C9401144D
:1034E000602F8C2F0E94D6148A3040F424E086305E
:1034F00008F0BACF843040F023E0B6CF8A30E1F351
:1035000021E08C3009F4B0CF22E0AECF8C2F0E94A6
:103510000A1525E08A3A09F4A7CF26E08C3A09F487
:10352000A3CF27E0823909F09FCF9DCF20E09CCF29
:1035300061E08AE20E94471940E06DE187E0DF9197
:10354000CF911F910F91FF90EF90DF90CF90BF90A0
:10355000AF909F908F907F906F900C94E31861E0F4
:1035600085E00E94471940E06DE180E1E8CF20E06E
:1035700040E460E083E50E94DC1360E08AE00E94A2
:10358000471941E065E08DE50E94E318609155021E
:103590008CE0689FB00111246B5F7F4F2CE242E505
:1035A00052E286E590E00C94D0131F93CF93DF9303
:1035B00081E00E947114D0E011E1CCE0DF5F612F67
:1035C00070E02D2F42E552E28C2F90E00E94D6133E
:1035D000C45FC83710F0165FCCE0D43279F760E0F2
:1035E00083E00E9447198DE00E949D1840E063E04F
:1035F0008CE00E94E318609155022AE0629FB001BE
:1036000011246F5E7F4F809154022CE0829FC00195
:1036100011242CE242E552E20696DF91CF911F91F0
:103620000C94D61380E00E94711460E081E40E9443
:10363000471941E068E084E00E94E31860E082E41A
:103640000E94471941E062E284E00E94E31880E1B1
:103650000E94661481110E94071488E00E945B1486
:10366000882341F081E08093600280910D018E5F9C
:1036700080935502089580E00E94711460E089E211
:103680000E94471941E06BE082E10C94E31860E08E
:1036900088E00E9447198AE00E949D1841E062E09C
:1036A00084E00E94E31821E040E46AE080E00C94AA
:1036B000DC130F931F93CF93DF93B0E0A0E09D0145
:1036C00020503F4FF901662341F0249130E02F5FF5
:1036D0003F4FA20FB31F6150F2CFC491FD0131964D
:1036E000682F811101C061E070E050E040E0CE0F32
:1036F000DF2FD11D6E527E4F8A010F5F1F4FF801E1
:10370000EA0FFB1FEC17FD075CF4F901E00FF11F56
:103710009491460F572F511DFA019083A801ECCFC9
:10372000811102C04093D201DF91CF911F910F917F
:103730000895CF93DF93D0910D01C8E0D111C2E07D
:1037400080E00E94711460E080E00E944719D1116E
:1037500004C061E081E00E94591B809167028823C8
:1037600041F166E08BE10E94591B41E06C2F88E239
:103770000E94E318809155028250990B4CE0489FBB
:103780009001499F300D1124C20FD32FD11D2CE27F
:1037900042E552E2BE0180E290E00E94D0132DE2A9
:1037A00042E552E2BE018AE590E0DF91CF910C94B0
:1037B000D01365E08AE1D7CFCF9380E00E947114E7
:1037C000C0915602CE3F70F460E082E00E9447193B
:1037D00041E061E18FE10E94E318CF5FC0935602A0
:1037E000CF91089520E048E75BE060E170E084E37A
:1037F00090E00E94D01320E046E65BE070E060E0DD
:103800008CE390E00E94D01320E044E45AE068E1A9
:1038100070E080E190E00E94D01320E046E35AE09F
:1038200060E370E08DE390E00E94D013809161022C
:103830009091620264E670E00E942735C29780F69C
:1038400020E04EE25AE064E370E08DE390E00E94F5
:10385000D61364E980E00E94591B41E065E381E3EF
:10386000CF910C94E318E0915702EF71E43008F027
:10387000E0E0F0E0E450FF4F249170E04EEE50E0C5
:1038800090E00C94D013EF92FF920F931F93CF937D
:1038900080912002882309F465C080916102909193
:1038A000620287709927892B31F48091A9018F5F7B
:1038B00083708093A9018091A90190912102C92F61
:1038C000CC0FC90FE82FF0E0E05CFE4F9081C90FEC
:1038D000E0905A02F0905B02009158021091590258
:1038E0002BEAC29F212D112426956091240270910C
:1038F00025026E197F09482F417050E0641B750B3B
:103900006F5F7F4F8091220290912302801B910B69
:103910004CEC59E002960E94CA1360912402709107
:1039200025026E197F09685F7F4F80912202909176
:103930002302801B910B2C2F4AEA58E002960E942A
:10394000CA13C13089F460912402695F6E198091B5
:1039500022028A5F801BCF911F910F91FF90EF9001
:103960000C94331C81E0A5CFCF911F910F91FF9054
:10397000EF9008950E94431C20E040E460E083E55E
:103980000E94DC1360E084E00E94471941E065E09A
:103990008DE50E94E318609155028CE0689FB001AC
:1039A00011246B5F7F4F2CE242E552E286E590E006
:1039B0000C94D013209161029091A701290F2093BC
:1039C000A7014AE0249F90011124482F429FC00183
:1039D000439F900D112460E07AE00E942735862FE6
:1039E0000895CF92DF92EF92FF920F931F93CF93A0
:1039F000DF93082FD62E142FC22ED0912D02F8EF70
:103A0000EF2EED0ECE2DCC0F8C2FC83008F087E0B6
:103A10000E94DA1CF82ED092B601C092AF0184E069
:103A20008093B801D950D1102BC081E0E81250C06A
:103A3000802F063008F085E00E94DA1C8093B601E2
:103A400083E00E94DA1C182F8091B6018F5F9D2FB2
:103A5000990F9D0F990F890F8093B6019F2D969511
:103A60009093AF0167E00E941B35912F990F990F3A
:103A7000890F90E1F99E90011124822B8093B5016A
:103A80003091B60183E0389FA00111245093B10119
:103A90004093B001932F990F930F9093B20190939D
:103AA000B301692F660F6093B401232F220F220FF9
:103AB000230F2093B701113069F0123021F1DF910B
:103AC000CF911F910F91FF90EF90DF90CF900895CD
:103AD0008C2FB2CFC250892F8C1B8093B201C90F9B
:103AE000C093B3016D2F70E0660F771F461B570B15
:103AF0005093B1014093B0019C0F9093B401931B7C
:103B00009093B701DCCFC250892F8C0F8093B20104
:103B10009C1B9093B3018D2F90E0880F991F840F09
:103B2000951F9093B1018093B0016C1B6093B40119
:103B30002C1B2093B701C3CF1F93CF93DF93D8E300
:103B4000C8E717E080916302612F0E941B356D2F3B
:103B500070E0292F4CEA50E08C2F90E00E94D613A1
:103B6000C850C7FFEFCFD850D13420F0DF91CF91AC
:103B70001F910895C8E7E6CFCF93809127028093E5
:103B80002602809129028093280280911D028823B9
:103B9000D1F020E040E460E380E00E94DC1361E0CB
:103BA00082E50E94471941E062E384E00E94E31845
:103BB00010921E0280916302873018F086E0809395
:103BC0006002CF910895C09163020E949C1D809174
:103BD0006102909162028F709927892B59F7CF5F0C
:103BE000C0936302E7CFCF93DF930E949C1D809127
:103BF00061029091620287709927892B29F4809144
:103C000063028F5F809363028091630290916402EC
:103C1000911156C0843009F053C081E08093640252
:103C20008091210281111FC0E0913502F0E0EE0F7A
:103C3000FF1FEF55F74E849120E1829FC0011124B0
:103C400090932302809322023196E49140E1E49F15
:103C5000F00111243C96F0932502E0932402DF91B9
:103C6000CF910C948C18D091C101C091C0016D2FDF
:103C70008C2F0E940A158F77823269F480E591E0DB
:103C8000909323028093220288EE9BE0909325027A
:103C900080932402E4CF6D2F8C2F0E940A158F771A
:103CA000482F4A52550B9A0140E851E0249FC00129
:103CB000259F900D349F900D112480539D4FE0CF90
:103CC000873048F0109263021092C20186E0809320
:103CD000600210926402DF91CF910895CF93C0915A
:103CE000630261E085E28C0F0E944719C230B1F493
:103CF00087E10E949D1880E00E94711420E040E45A
:103D000060E380E00E94DC1341E062E384E00E9413
:103D1000E3180E94431CCF910C948C18C43058F3C4
:103D20000E949C1D809161029091620266E070E0A9
:103D30000E942735892B19F4CF5FC09363028091CD
:103D40006302883030F31092630286E08093600251
:103D5000E0CF10925502109254020895EF92FF9214
:103D60000F931F93CF93DF931092720021E030E006
:103D70003093A6012093A501E6E7F2E048EDDF01CC
:103D80001D924A95E9F740EF40930E0149E14093B7
:103D9000750241E752E05093A4014093A301309390
:103DA000A00120939F0130933E0320933D0322E422
:103DB0002093C00021E02093C1002FEF2093D10079
:103DC00020E82093CF00EC012196FC018491D09350
:103DD0007402C093730290E0880F991FC80FD91F17
:103DE000CE010496909372028093710236E7E32E1F
:103DF00032E0F32E10E000E0FE01E00FF11F8491AD
:103E00000E94B813D7018D939C930F5F1F4FB6E3A9
:103E1000EB0EF11C0430110579F784E080937200F9
:103E2000DF91CF911F910F91FF90EF900895CF9365
:103E300084EA94E10E94AE1E1092B90110921E0213
:103E400081E18093600289E08093CF011092CC01E0
:103E5000109263028091BA01882309F48AC080918C
:103E6000410283FB882780F991E089278093020132
:103E7000109203018EE18093C80180E880930401D1
:103E800080912A0290912B024E9690932B02809360
:103E90002A0220913502822F8C51990BAC0181E0CE
:103EA00090E0A0E0B0E004C0880F991FAA1FBB1FDC
:103EB0004A95D2F7809590913602892380933602F5
:103EC00080912E022D31C9F12E31D9F12C31E9F535
:103ED00020E040E065E00E94F11C8091350294EE04
:103EE000980F9093B5018B51990B4AE5489F90012B
:103EF000499F300D11248091B0019091B101820F42
:103F0000931F9093B1018093B0010E94A91E8091EC
:103F10004202823031F0843009F44EC0813009F021
:103F20004DC08093AE01E091AE01F0E0EE59FE4F3E
:103F300080818093CD01CF91089521E042E060E13E
:103F4000CACF22E040E068E1C6CF23E041E063E26F
:103F50000E94F11C80913E0287FDBFCF8FEF8093BE
:103F6000B2018093B3011092B80188EC8093B40140
:103F7000B4CF24E044E060E080912E020E94F11C66
:103F800010920201C091B60183E00E94DA1CC89F22
:103F9000802D11248F5F8093C70190E890930301D7
:103FA00020912A0230912B02820F932F911D909322
:103FB0002B0280932A02A9CF83E0B3CF1092AE01E7
:103FC000B2CF81E08093BA010C94171F10922102A6
:103FD0001092C2011092200281E3EFE0F1E0A2E230
:103FE000B2E001900D928A95E1F784E1809360023E
:103FF00080E295E10C94AE1ECF938091670281110F
:1040000016C00E945514C091670282E090E00E94A1
:104010000535C81729F06C2F82E090E00E940D351D
:1040200080910D018E5F80935502CF9108950E947B
:104030005014E9CF80E00E9471140E94FC1F81E0BF
:104040008093600208950F931F93CF93DF9302E252
:1040500012E0C1E1D0E0CE010E940535D8018D9378
:104060008D012196C234D105B1F786E080936002BC
:1040700010927200E6E7F2E088EDDF011D928A956A
:10408000E9F780EF80930E01DF91CF911F910F919F
:104090000895FF920F931F93CF93DF9300D000D02A
:1040A00000D0CDB7DEB7F82ECB014AE08E010F5F0E
:1040B0001F4FB8010E94D034F80101900020E9F7A9
:1040C0003197E01B4F2DF11001C041E050E020E09E
:1040D0006E2FEE0F770B822F90E0861797076CF408
:1040E000DC01AE52BE4FA40FB51F800F911FFC0123
:1040F000808185518C932F5FEECFF11002C0209309
:10410000D20126960FB6F894DEBF0FBECDBFDF9169
:10411000CF911F910F91FF900895CF93DF9381E08E
:104120000E94711420E048E060E080E00E94DC130F
:1041300020E040E469E380E00E94DC131092C301B8
:10414000DBE1C3E061E66C0F80E00E94591B40E0B8
:104150006D2F8CE00E94E318EC2FF0E0E757FE4F44
:10416000608170E080E00E94492040E06D2F8EE683
:104170000E94E318C150D650CF3F21F760915502FD
:1041800086E0689FB0011124675F7F4F2CE242E513
:1041900052E285E090E00E94D61362EC80E00E943B
:1041A000591B41E060E084E0DF91CF910C94E3186B
:1041B000AF92BF92CF92DF92EF92FF920F931F9335
:1041C000CF93DF9381E00E94711420E048E060E02B
:1041D00080E00E94DC1320E040E46FE280E00E9477
:1041E000DC131092C301D0E0C0E000E02EE0B22E5C
:1041F00036E0C32EDC2EA09060028A2D8C50990BE5
:104200007C01EE0CFF1CF701EE5DFD4F7F01818DFF
:1042100090E00C2E02C0959587950A94E2F780FFF6
:104220006BC06A2D660F660F660F6F5F6C0F80E0C4
:104230000E94591B102F110F100F110F175F40E034
:10424000612F8CE00E94E3182CE0A2122FC00C9D7D
:10425000B0011124675F7F4F28E142E552E28CE50F
:1042600090E00E94D613FE01EE5DFD4F61A170E06B
:1042700080E00E94492040E0612F84E70E94E3181B
:1042800080915502081337C080916002D092C60118
:1042900060E08D30F1F08E3009F470C08C3009F0A0
:1042A00076C083E18D0D0E94471920C0F701828DF1
:1042B00090E00C2E02C0959587950A94E2F780FF56
:1042C000DFCF61E580E00E94591B40E0612F88E468
:1042D000D5CF8BE10E944719BC9EB001BD9E700DE9
:1042E00011246F5F7F4F8FE00E94492041E061E31E
:1042F00084E00E94E3180F5F2196C830D10509F0D1
:1043000079CF10916002812F8C50990BEC01CC0F6A
:10431000DD1FCE5DDD4F898D81110AC060E083E035
:10432000810F0E94471940E06DE182E20E94E3188C
:10433000898D882379F06091550296E0699FB001DC
:104340001124675F7F4F2CE242E552E285E090E066
:104350000E94D61361E5610F80E00E94591B41E085
:1043600060E084E0DF91CF911F910F91FF90EF907B
:10437000DF90CF90BF90AF900C94E3188CE10E9437
:104380004719CC9EB001CD9E700D1124AACF8DE1AE
:1043900089CFFF920F931F93CF93DF9380E00E940A
:1043A00071140E94471B60E08DE30E9447198091C1
:1043B0003602807F60E0882329F0982F9170690F82
:1043C0008695F9CF70E084E10E94492040E06EE0DC
:1043D00084E00E94E31860E08EE30E944719C3E086
:1043E000D8E184E0F82ECD9F8001112420E046E33F
:1043F0005AE168E270E0C80144960E94D6138091A9
:10440000360290E00C2E02C0959587950A94E2F74B
:1044100080FD0AC02F2D2C1B47E558E16CE270E0AF
:10442000C80148960E94D013C150E8F640E06CE104
:1044300084E0DF91CF911F910F91FF900C94E318CE
:104440004F925F926F927F928F929F92AF92BF92A4
:10445000CF92DF92EF92FF920F931F93CF93DF9350
:1044600086E08093D001C0902402D0902502A090D5
:104470002202B090230220E831E0C601B9010E9477
:104480002735E62FEE0FEE0FEE0FC501B9010E94A2
:1044900027356053E60F512CEB3020F4F0E0EA5959
:1044A000FE4F5080252D220F250D30E0F901EC5EE6
:1044B000FA4EE49140E1E49F800111241093BC0185
:1044C0000093BB01F901EB5EFA4EE49170E1E79FC6
:1044D000E0011124D093BE01C093BD01F901EA5E51
:1044E000FA4E54905092BF0120E630E0C501B90168
:1044F0000E943B35462F6093C001C601B9010E945E
:104500003B35462E6093C101842F0E94D6148093C0
:104510002D02833120F5E82FF0E0EF56FD4D0C948D
:104520004F35A42280238B23A42280238023A4221E
:10453000A422AC23A42280238B239623AF22AF2274
:10454000AF22AF22AF22A1238091B901813039F08F
:1045500081E08093B90182E996E10E94AE1E8091CC
:10456000C201893C80F080912D028950843048F44A
:104570008AE00E94DA1C873020F41092BA010E946F
:10458000171F1092C20180916102909162028F7197
:10459000992721E0409708F020E020930701C09080
:1045A0005702D12CC3FAEE24E0F8F12C8091580286
:1045B000909159025801A81AB90A80915A02909113
:1045C0005B024E01881A990A252D2770B401675F96
:1045D0007F4F43EE57E1C50103960E94CA13B40111
:1045E000655F7F4F85E0C80ED11CC3FA662460F872
:1045F000712C6619770920E049EC57E1C501029654
:104600000E94CA13252D30E065E0359527956A95FF
:10461000E1F7B701680D791D47EC56E1C5010E942D
:10462000CA1367E06E0D680D86E08A0D0E94331C88
:104630000E94431C2091240230912502C090220246
:10464000D090230221349BE0390744F5E0E0F3E009
:10465000C60180599F4FBF010E943B35462FC901BB
:1046600080599F4FBF010E943B35660F660F842F14
:10467000860F9927991FFC0153E0F595E7955A9508
:10468000E1F7EE5DFD4F640F677041E050E001C05F
:10469000440F6A95EAF787A5842B87A7F09021023B
:1046A000F0FC6AC081EA98E160E0FC014491F0E12D
:1046B0004F9FA0011124FC013196E491DA01139778
:1046C000CA16DB060CF453C0495F5F4FC416D5060B
:1046D0000CF04DC040E1E49FF00111242E173F077C
:1046E0000CF445C03A962E173F070CF040C072E01C
:1046F000F71202C06093350280E1809360023CC0F3
:104700008091B901823009F42ACF82E08093B90107
:104710008DE296E122CF8091B901833009F41FCF59
:1047200083E08093B9018BEB95E117CF8091B901BC
:10473000843009F414CF84E08093B90180E595E1D9
:104740000CCF8091B901853009F409CF85E08093C1
:10475000B90184EF99E101CF8091B901863009F464
:10476000FECE86E08093B90180E295E1F6CE6F5FE0
:104770000296633309F099CF0E948C18209122028F
:1047800030912302EF2DF0E0C9010397EE0FFF1FD8
:10479000EF57FE4FE080E80EF92EF11C80912402C5
:1047A00090912502AC0141505109C180C40ED52E13
:1047B000D11C40911D02442309F440C0A801485077
:1047C0005109E416F50684F1085E1F4FE016F10664
:1047D0005CF5CC16DD0644F1A096CC16DD0624F57A
:1047E00041E040931E0210921F02E0E8F1E0BF0199
:1047F0000E943B35462F440F440F440FC901BF01AF
:104800000E943B35640F6A3351F06C3381F06033A2
:1048100009F06EC061E08FE30E94471905C0109255
:104820001E0289E18093600210921D0207C010925F
:104830001E028AE1809360021092630280911F023F
:104840008823B1F1B601C7010E94AE168F3109F07D
:104850005DC020912D028091420290E0022E02C0A4
:10486000959587950A94E2F780FF45C081E090E036
:10487000A0E0B0E004C0880F991FAA1FBB1F2A95B3
:10488000D2F720913A02822B80933A0261E087E3CB
:104890000E94471981E080935C0281E080931E02B0
:1048A00080911E02811102C00E94B91810921F024D
:1048B00080911E02882309F45EC120E040E460E399
:1048C00080E00E94DC1341E062E384E0DF91CF915D
:1048D0001F910F91FF90EF90DF90CF90BF90AF901E
:1048E0009F908F907F906F905F904F900C94E31803
:1048F00061E08CE391CF61E086E30E94471960910B
:104900002D02675881E20E94591BC7CF803340F2C5
:10491000873331F28833C1F0893381F1823309F072
:1049200027C180913A0283FD0AC0886080933A02D1
:1049300061E081E30E94471960E987E1E4CF61E02B
:1049400088E30E944719A9CF80912D02883041F455
:1049500061E081E00E94471982E20E949D189DCF8C
:104960008EE161E0841510F487E1EBCF85E30E94CE
:10497000471960912D02675588E1C5CF80912D02BE
:1049800097EF980F943020F58550990B41E050E057
:1049900060E070E004C0440F551F661F771F8A95C2
:1049A000D2F780913602842B8093360290913A029E
:1049B000492B40933A02807F803F41F480913D0231
:1049C000806880933D028AE161E0BBCF84E2FCCF46
:1049D0008091350294EE980F9430E8F420913602DD
:1049E000203FA9F08C51990B30E0082E02C035957C
:1049F00027950A94E2F720FD0AC02091410230E099
:104A000002C0359527958A95E2F720FDB1C082E175
:104A10008093600242CF8B3281F480913F028160AB
:104A200080933F028091390280618093390261E076
:104A300083E30E94471961E780CFE82FE695E6956A
:104A4000E695F0E0EE5DFD4F982F977041E050E065
:104A500060E070E004C0440F551F661F771F9A95F1
:104A6000D2F79589942B958B65E00E941B35082F12
:104A7000000F11E0100FC12FD0E061E091111AC0BA
:104A800080E30E9447196DE78BE00E94591B9AE072
:104A9000199FE0011124BE018CE10E944920809100
:104AA0002A0290912B02C80FD91FD0932B02C093DA
:104AB0002A02F3CE9130A1F480E30E94471980913D
:104AC0003B02816080933B02BE018CE10E94492041
:104AD000C0914302C10FC093430261E68BE013CF44
:104AE000923099F480E30E94471980913B028460E0
:104AF00080933B02BE018CE10E944920C091450297
:104B0000C10FC093450263E6E9CF9330D9F482E345
:104B10000E944719BE016F5F7F4F7595679581E0D1
:104B200090E0A0E0B0E0062E04C0880F991FAA1FF5
:104B3000BB1F0A94D2F720913D02822B80933D0245
:104B40006759FBCE83E30E94471981E090E0A0E023
:104B5000B0E004C0880F991FAA1FBB1F1A95D2F797
:104B600020913F02822B80933F0262E7600FE5CEE7
:104B700061E08CE2E6CEDF91CF911F910F91FF9023
:104B8000EF90DF90CF90BF90AF909F908F907F90ED
:104B90006F905F904F900895CF93DF9310921E0215
:104BA00080E00E947114C0916302D0E0FE01EE5FCC
:104BB000FE4F8081882351F08130F1F01092630222
:104BC00086E080936002DF91CF91089561E080E3F9
:104BD0000E944719C953DE4F688170E08CE10E9442
:104BE00049206DE78BE00E94591B41E060E288E0BC
:104BF000DF91CF910C94E31861E084E30E944719A0
:104C000060913502862F8C51990B9C0181E090E0D8
:104C1000A0E0B0E004C0880F991FAA1FBB1F2A950F
:104C2000D2F720914102822B80934102635A86E1A0
:104C3000DACF0F931F93CF9380916302863038F4BD
:104C400081E080935D02CF911F910F91089586308E
:104C500009F07AC380E00E94711421E04CE268E020
:104C600080E00E94DC138091CC018E3150F0909155
:104C7000AD01992331F09091CF01963011F480FD70
:104C800024C060E08BE40E9447190E940118682F3D
:104C900081E00E94591BC091B5018091BA0188231F
:104CA00009F431C00E94A614682F880F770B605F4B
:104CB0007F4F2C2F42E453E184E390E00E940114E3
:104CC00040E06FE085E00E94E31820E040E46CE201
:104CD00080E00E94DC13E091CF01EE3008F020C3A9
:104CE000F0E0EB58F94D0C944F35AA26F5269E2797
:104CF000B327C027C327EA279328F5280E292A2996
:104D00004D29602979290E94A614082F880F110BBC
:104D10002C2F2F70B801605F7F4F48E952E189E383
:104D200090E00E9401142C2F30E044E03595279547
:104D30004A95E1F7B801685E7F4F46E252E188E3A9
:104D400090E00E9401146091B60170E08AE00E9438
:104D50004920B6CF909133028091B701891780F432
:104D600089E10E94DA1C823068F41092AD0181E082
:104D70008093AC0186E08093CF011092CC018CC06F
:104D800084E1EFCF833178F182E08093AC019091A0
:104D90002F022091300230E0899F200D311D112417
:104DA00040912E02429FC001439F900D11246091BB
:104DB000B20170E00E9427356F3F710519F014F0C1
:104DC0006FEF70E06093AD018091B0019091B101FF
:104DD000861B910997FF02C090E080E09093B1019B
:104DE0008093B001C7CF81E0D0CFA0912E02209157
:104DF000300270912F028091AE0134E08302F00105
:104E000011249091AF01EE5AFE4FE90FF11D97FD6D
:104E1000FA9560816093AC01472F50E05595479516
:104E200090E00196489FF001499FF00D589FF00DCA
:104E300011242E0F3F2F311D769F200D311D11247F
:104E4000A29FC001A39F900D11246091B30170E057
:104E50000E9427356F3F710519F014F06FEF70E075
:104E60006093AD018091B0019091B101861B9109D1
:104E700097FF02C090E080E09093B1018093B00171
:104E800086E08093CF011092CC018091280290910E
:104E9000CD01891B8093280260E080E40E944719BD
:104EA0008091CF01873051F48091AD01882331F09A
:104EB0008091CC018E3110F080FD06C060912602F9
:104EC00070E084E00E9449206091270270E088E051
:104ED0000E9449206091280270E08FE00E944920E2
:104EE0006091290270E083E10E9449208091CF0106
:104EF0008D3021F48091CC01837029F041E062E093
:104F000080E00E94E31860E081E50E94471960910B
:104F1000AE01662309F416C2685881E00E94591B4D
:104F20006091CD0170E087E00E94492040E06FE091
:104F30008CE5CF911F910F910C94E31880912D0275
:104F4000823151F061E08EE20E94471941E064E352
:104F500084E00E94E318A0CF81E080930A0184E0FE
:104F60008093CF0199CF0E94A91E8AE08093CF0140
:104F7000809160028093D0018CE0809360028CCF9E
:104F800061E08FE2E1CF1092CC01C091B801CC2357
:104F9000E9F084E10E94DA1C8430C0F4C150C0936F
:104FA000B8018CE08093CF019091B201892F869552
:104FB0008695890F8093B2019091B301892F8695D0
:104FC00086958695890F8093B30166CF1092AB01C9
:104FD00087E0C6CF8091CC018F5F8093CC018D3369
:104FE00008F45DC08091B0019091B101892B09F066
:104FF0004EC020912E02213208F045C08091B601AA
:105000003EE1839FC001112440912D024850550B71
:10501000249FB001259F700D11240E943B35809183
:105020002C02680F711D8091BA01882311F06C5910
:105030007F4F683C71052CF1685C71092F5F2093EC
:105040002E0280912702895F809327028093260297
:10505000809129028C5F809329028093280280919D
:105060002F028D5F80932F02809131028A5F80939F
:105070003102809133028B5F8093330281E0809311
:10508000AA0160932C021092AB0188E074CE80914B
:105090000A01882311F085E063CF8BE061CF8F3167
:1050A00050F19091AC01913051F060E080E5891BA6
:1050B0000E94471940E06AE086E40E94E318C0912C
:1050C000AD0161E0CC2379F083E40E9447190E948E
:1050D0000118682F81E00E94591B6C2F70E08BE053
:1050E0000E94492010C088E40E9447196EE382E0C4
:1050F0000E94591B08C08091CB0161E0811107C05B
:1051000087E40E94471941E064E380E022CF8FE406
:105110000E9447196091AE01662319F068588AE031
:10512000E7CF6CEEFCCF8091CC018F5F8093CC01F8
:105130008E3189F5909133028091B701891748F13A
:1051400084E11092AD010E94DA1C8430F8F0809165
:10515000B40190912E02899FC00111246091310207
:1051600020913202620F7727771F0E943B35161677
:10517000170614F061E070E06093AD0180912602A3
:10518000861B990B97FD80E08093260261E086E400
:1051900012C08FE0D6CF8C33A8F48F31B8F3C09112
:1051A000AD0161E0CC2331F083E40E9447196EE346
:1051B00082E091CF88E40E9447190E940118682F6D
:1051C00081E096CF80912602882339F080910A01F0
:1051D000811163CF8091CB01C3CE8BE080936002BD
:1051E00084E694E10E94AE1E57CE8091CC018233BA
:1051F00060F48F5F8093CC0161E084E40E944719E2
:105200000E940118682F8EE073CF8091AA01882335
:1052100009F480C01092AA018DE0ADCD8BE080939F
:10522000CF01C091CC01C23308F036CE61E085E4F5
:105230000E9447190E940118682F83E00E94591BA1
:1052400041E064E380E00E94E318CF5FC093CC01AB
:1052500089E086CE60E08DE20E9447196091AE0140
:105260006623C9F0685880E10E94591B609155027D
:1052700086E0689FB00111246C5C7F4F80915402DE
:1052800026E3829FC00111242CE242E552E20396FC
:105290000E94D0135BCE6CEEE6CF909133028091EA
:1052A000B701891758F08FE00E94DA1C91E088302E
:1052B00008F490E090930A018AE052CE84E1F4CFA2
:1052C000C091CC01CF5FC093CC01CC3308F07ECF2E
:1052D00060E08AE40E944719CE3120F461E089E45D
:1052E0000E9447190E940118682F81E00E94591BF3
:1052F0002DCEC091CC01CF5FC093CC0161E08CE496
:105300000E94471941E064E384E00E94E318CD3332
:1053100008F4C2CD809163028F5F80936302BCCD9D
:1053200061E08DE40E94471941E064E380E00E945F
:10533000E3188091CC018F5F8093CC018D3308F40A
:10534000ABCDBACF6CEEE9CD8BE1809360021092C9
:10535000630279CCCF93DF93C82FD42F70E00E94E3
:1053600049206BE283E08C0F0E94591B6D2F70E087
:1053700084E08C0FDF91CF910C944920CF93DF9381
:1053800080E00E9471140E94471B60E086E00E944A
:105390004719C2E2D2E06885798587E00E944920FA
:1053A0004D816C8184E10E94AA294F816E8182E245
:1053B0000E94AA2948EC6A8589E30E94AA2940E054
:1053C0006EE084E00E94E31860E087E00E944719E5
:1053D0006C8570E085E00E9449206D858E85680FA0
:1053E0007727771F80E10E9449206F858889680FA1
:1053F0007727771F8AE10E944920698970E084E25B
:105400000E94492040E06EE084E5DF91CF910C944A
:10541000E3181F920F920FB60F9211242F933F9310
:105420008F939F93AF93BF938091690290916A028B
:10543000A0916B02B0916C023091680223E0230FBF
:105440002D3758F50196A11DB11D20936802809358
:10545000690290936A02A0936B02B0936C028091F0
:105460006D0290916E02A0916F02B0917002019650
:10547000A11DB11D80936D0290936E02A0936F02E7
:10548000B0937002BF91AF919F918F913F912F91F7
:105490000F900FBE0F901F90189526E8230F0296CD
:1054A000A11DB11DD2CF2F923F924F925F926F926A
:1054B0007F928F929F92AF92BF92CF92DF92EF92A4
:1054C000FF920F931F93CF93DF933FE8C32E31E0FA
:1054D000D32EC6E7D2E010E000E0772473944BE1CE
:1054E000942E56E3852E69E0462E6DE3562E222437
:1054F0002A94322CEEA5EE23A9F08FA59E2F93704F
:10550000891708F49BC0F0E0F595E795F595E795C8
:10551000EE0FFF1FEE52FE4D85919491F60192839E
:1055200081831FA69CA99923F9F08DA9292F2F7794
:10553000022E000C330B821713060CF489C08A81EB
:1055400097FF7FC081508A838A8181117CC081E06E
:105550008A83EA81F0E0EE0FFF1FEE52FE4D859147
:1055600094919EA38DA31DAA58A5552321F13AA578
:1055700029A5311119C0422F407426FF6CC08DA19E
:105580009EA1850F911D57FD9A9527FD69C097FD36
:1055900065C0442309F466C0863BF4E29F0714F01B
:1055A00085EB94E29EA38DA381E0830F8AA72F73DE
:1055B000321708F01AA69BA5992371F0EA81EE2311
:1055C00059F08DA52CA5482F4F71322F3F714317ED
:1055D00008F04AC08F5F8DA749A9442311F13AA969
:1055E000632F607436FF6CC08DA19EA12BA950E083
:1055F00027FF69C0840F951F97FD68C0662309F4D3
:1056000069C0863B44E2940714F085EB94E29EA3C4
:105610008DA33F71822F8F71831708F05DC02F5FBC
:105620002BAB89A19AA1009709F45DC08F3F980721
:1056300009F49AC001979AA389A396C08F5F8FA798
:1056400071CF8F5F80CF803408F483CF8FE380CF1A
:105650008F5F8DAB89CF8FA190E093CF90E080E0FA
:105660004111A0CF8FA3A0CF807EF1F480E28DA75F
:105670008DA5807E51F09F3F09F1292F22952F7033
:10568000E20F803411F49F70E90F88A9F0E0E80F71
:10569000F11D87FDFA95EE0FFF1FEE52FE4D85912D
:1056A00094919EA38DA398CF803231F426FD04C03F
:1056B0009F3F11F080E4DBCF1DA6DACFE0E0E1CF21
:1056C0008FA190E093CF841B950B96CF90E080E064
:1056D00061119DCF8FA39DCF27FF02C01BAAA1CF31
:1056E00080E88BAB9ECFC8010496672C01C0660C86
:1056F0008A95EAF7909E5001919EB00C1124809EED
:10570000C001819E900D11249C012A583D4F7901C2
:1057100088819981BC016F5F7F4F79836883FC0129
:105720004491403408F07CC04A83442319F088A98E
:10573000480F4A83EA81F0E0EE0FFF1FEE52FE4D64
:10574000859194919EA38DA389A5811102C08FA5F7
:105750008FA38CA585FD1DA689A19AA10097C1F2F2
:105760008F3F980709F066CF20910E01822F90E0BD
:10577000002E02C0959587950A94E2F780FD0AC035
:10578000033009F0F4C180913F0390E0959587952F
:1057900080939E01207F39F5809196029091CC02F2
:1057A000890F90910203890F90913803890F09F4B2
:1057B000E6C18EE4A82E83E0B82E96E7E92E92E0AB
:1057C000F92EF70180A10E94B813F701918380831D
:1057D00012A211A2F6E3EF0EF11CAE14BF0489F77A
:1057E00080EF80930E010F5F1F4FE696F5E0CF0E1E
:1057F000D11C0430110509F07DCEDF91CF911F91AE
:105800000F91FF90EF90DF90CF90BF90AF909F905F
:105810008F907F906F905F904F903F902F90089562
:10582000403A08F009C1E42FE054FF0BEC30F105D9
:1058300009F4BFC00CF04CC0E530F10509F4A2C07A
:10584000F4F4E230F10509F49DC094F4309709F4C2
:1058500091C0319709F080CF029699838883FB012C
:10586000649168A780E0413409F080E489A774CF8F
:10587000E330F10509F493C0349771F36DCFE8304C
:10588000F10509F462C0A4F4E630F10509F487C01B
:10589000379709F061CFFB0164916BA79C012D5FE5
:1058A0003F4F39832883FC013296E491ECA754CF13
:1058B000EA30F10509F47BC002963B970CF471C005
:1058C00099838883FB01849168A9680F68AB44CFF2
:1058D000E331F10509F477C064F5EF30F10509F41F
:1058E00070C0DCF4ED30F10509F469C03E9709F0B1
:1058F00033CFFB012591349129AB9C012D5F3F4FA4
:1059000039832883FC0132962591349180E04E340E
:1059100009F080E4820F8AAB1FCFE131F10509F471
:1059200050C03CF3029699838883FB0164916CAB71
:1059300013CFEC35F10509F451C04CF4E431F10515
:1059400009F443C0759709F007CF1BA605CFEE35C4
:10595000F10509F45CC00CF454C0EF35F10509F011
:10596000FBCE80910E01862580930E011FA23AA2E4
:1059700029A2F2CE029699838883FB0164916FA3DA
:105980006FA7EACEFB01649168A79C012D5F3F4F92
:1059900039832883FC013296E491E9A7DDCE18A66D
:1059A000DBCE99838883FB0164916EA7D5CE1EA6BA
:1059B000D3CE029699838883FB01649187CF18AA7E
:1059C000CBCE19AAC9CE1CAAC7CEFFEFFBA7029661
:1059D00099838883FB0164916CA7BECE029699835C
:1059E0008883FB016491E09175026E0F60937502EC
:1059F00070E0C2010E943B357093A4016093A30143
:105A0000ABCE029699838883FB016491EFCFA6E722
:105A1000B2E021E030E0FC01E20FF31FE491909648
:105A2000EC9390972F5F3F4FD6962530310599F72D
:105A300005969983888390CE403E28F44F59550BA4
:105A40005AA349A389CE403EA9F4DE0190E080E04C
:105A50009695982F882797958795ED91FD91E491DC
:105A60002E2F2F77822BE7FDF3CF8F5B9F4F9AA3CB
:105A700089A372CE4C3F08F46FCE24E0240F22306D
:105A800008F039C04C3FA9F1029699838883FB0145
:105A90006491E881F9819F012F5F3F4F398328830B
:105AA000E4915CA15E1701F14F8D842F90E07BA102
:105AB000D701A80FB91F51967C93519758965C93C4
:105AC000D501A80FB91FAA0FBB1FAA58BD4F8091BF
:105AD000710290917202281B390B14963C932E93FD
